:100000000C9463000C948B000C948B000C944304B0
:100010000C9443040C9443040C948B000C948B00BC
:100020000C948B000C948B000C948B000C948B0024
:100030000C948B000C948B000C948B000C948B0014
:100040000C94F9030C948B000C94C7030C94A1033B
:100050000C948B000C948B000C948B000C948B00F4
:100060000C948B000C948B000000000024002700EF
:100070002A0000000008000201000003040700003D
:1000800000000000000000000000250028002B00F8
:1000900000000000230026002900040404040404D6
:1000A0000404020202020202030303030303010227
:1000B00004081020408001020408102001020408F6
:1000C0001020BD04220811241FBECFEFD8E0DEBFF0
:1000D000CDBF12E0A0E0B1E0E8EDF0E102C0059094
:1000E0000D92AE34B107D9F723E0AEE4B2E001C01F
:1000F0001D92A336B207E1F710E0C2E6D0E004C0DB
:100100002197FE010E945408C136D107C9F70E9409
:1001100068050C945F080C940000CF92DF92EF9278
:10012000FF920F931F93CF93DF936C017A018B01A2
:10013000C0E0D0E0CE15DF0589F0D8016D918D01CA
:10014000D601ED91FC910190F081E02DC601099559
:10015000892B11F47E0102C02196ECCFC701DF91FB
:10016000CF911F910F91FF90EF90DF90CF90089566
:10017000FC01538D448D252F30E0842F90E0821BAD
:10018000930B541710F0CF96089501970895FC0132
:10019000918D828D981761F0828DDF01A80FB11DBE
:1001A0005D968C91928D9F5F9F73928F90E00895E2
:1001B0008FEF9FEF0895FC01918D828D981731F09C
:1001C000828DE80FF11D858D90E008958FEF9FEFF0
:1001D0000895FC01918D228D892F90E0805C9F4FC6
:1001E000821B91098F739927089587EA92E00E94F4
:1001F000E90021E0892B09F420E0822F0895FC0119
:10020000848DDF01A80FB11DA35ABF4F2C91848D9F
:1002100090E001968F739927848FA689B7892C93D4
:10022000A089B1898C9180648C93938D848D98136F
:1002300006C00288F389E02D80818F7D8083089538
:10024000EF92FF920F931F93CF93DF93EC0181E026
:10025000888F9B8D8C8D981305C0E889F9898081E2
:1002600085FD24C0F62E0B8D10E00F5F1F4F0F731E
:100270001127E02E8C8DE8120CC00FB607FCFACFC8
:10028000E889F989808185FFF5CFCE010E94FF00C2
:10029000F1CF8B8DFE01E80FF11DE35AFF4FF08285
:1002A0000B8FEA89FB898081806207C0EE89FF8914
:1002B0006083E889F98980818064808381E090E0AF
:1002C000DF91CF911F910F91FF90EF900895CF9301
:1002D000DF93EC01888D8823C9F0EA89FB8980814E
:1002E00085FD05C0A889B9898C9186FD0FC00FB620
:1002F00007FCF5CF808185FFF2CFA889B9898C9161
:1003000085FFEDCFCE010E94FF00E7CFDF91CF91B7
:10031000089580E090E0892B29F00E94F50081117A
:100320000C9400000895833081F028F4813099F016
:100330008230A1F008958730A9F08830B9F0843078
:10034000D1F4809180008F7D03C0809180008F77F1
:1003500080938000089584B58F7702C084B58F7D27
:1003600084BD08958091B0008F7703C08091B00064
:100370008F7D8093B0000895CF93DF93282F30E0D6
:10038000F901EE58FF4F8491F901E255FF4FD491E6
:10039000F901E656FF4FC491CC2391F081110E94E0
:1003A0009301EC2FF0E0EE0FFF1FE057FF4FA591F8
:1003B000B491EC91ED2381E090E021F480E002C063
:1003C00080E090E0DF91CF9108951F93CF93DF936A
:1003D000282F30E0F901EE58FF4F8491F901E255E2
:1003E000FF4FD491F901E656FF4FC491CC23C9F0D9
:1003F000162F81110E949301EC2FF0E0EE0FFF1FEA
:10040000EA57FF4FA591B4918FB7F894111105C029
:100410009C91ED2FE095E92302C0EC91ED2BEC933C
:100420008FBFDF91CF911F910895CF93DF9390E01D
:10043000FC01E255FF4F2491FC01E656FF4F8491E9
:10044000882361F190E0880F991FFC01E859FF4F64
:10045000C591D491FC01EA57FF4FA591B491611168
:1004600009C09FB7F8948881209582238883EC91F6
:100470002E230BC0623061F49FB7F8943881822F2D
:10048000809583238883EC912E2B2C939FBF06C0ED
:100490008FB7F894E8812E2B28838FBFDF91CF91FF
:1004A00008953FB7F8948091930290919402A0919F
:1004B0009502B091960226B5A89B05C02F3F19F072
:1004C0000196A11DB11D3FBFBA2FA92F982F8827D4
:1004D000820F911DA11DB11DBC01CD0142E0660F2F
:1004E000771F881F991F4A95D1F708958F929F9281
:1004F000AF92BF92CF92DF92EF92FF920E94510291
:100500004B015C0184EFC82EDD24D394E12CF12C47
:100510000E945102DC01CB0188199909AA09BB0983
:10052000883E9340A105B10558F021E0C21AD108D8
:10053000E108F10888EE880E83E0981EA11CB11C2A
:10054000C114D104E104F10419F7FF90EF90DF909A
:10055000CF90BF90AF909F908F9008952091990277
:1005600030919A022817390771F49091970280917F
:100570009802981741F0E0919702F0E0E25BFD4F9E
:10058000808190E008958FEF9FEF089508951F9365
:10059000CF93DF93DC015C962D913C915D97211503
:1005A000310539F481E090E013969C938E93129775
:1005B0003DC05196ED91FC91529750969C91509769
:1005C000892F80951FB75E964C915E9741FB7727E8
:1005D00070F941FD6095F8944081772311F0492B23
:1005E00001C048234083E9012197F1F748E0508199
:1005F00060FF02C0592B01C058235083E9012197A5
:10060000F1F76695415099F7772321F0908189237E
:10061000808303C08081982B90831FBF5C968D914F
:100620009C915D970197F1F721E030E0C901DF91DE
:10063000CF911F9108952091990230919A02281725
:10064000390771F4809198022091970290E0805CC4
:100650009F4F821B910960E470E00E942C0808956E
:1006600080E090E008952091990230919A02281735
:100670003907B9F49091970280919802981789F000
:10068000E0919702F0E0E25BFD4F808120919702BC
:1006900030E02F5F3F4F2F7333272093970290E076
:1006A00008958FEF9FEF0895E0919902F0919A02DB
:1006B000E817F90769F4A389B4899C918589809525
:1006C00089238C9310929A021092990281E00895E6
:1006D00080E00895089580E090E00895019711F476
:1006E00061E001C060E08DE00C94E5010E945A08D1
:1006F0006115710579F0FB0101900020E9F7319750
:10070000AF01461B570BDC01ED91FC910280F38198
:10071000E02D099480E090E008950F931F93CF930C
:10072000DF93EC010E9478038C0164E271E0CE015A
:100730000E947803800F911FDF91CF911F910F913D
:1007400008951F920F920FB60F9211242F933F938B
:100750004F935F936F937F938F939F93AF93BF93C9
:10076000EF93FF9387EA92E00E94FF00FF91EF91E1
:10077000BF91AF919F918F917F916F915F914F91B9
:100780003F912F910F900FBE0F901F9018951F92C1
:100790000F920FB60F9211242F938F939F93EF9385
:1007A000FF93E091B702F091B8028081E091BD0221
:1007B000F091BE0282FD12C090818091C0028F5FD5
:1007C0008F732091C102821751F0E091C002F0E0D6
:1007D000E955FD4F958F8093C00201C08081FF9144
:1007E000EF919F918F912F910F900FBE0F901F90BF
:1007F00018951F920F920FB60F9211242F933F93CB
:100800008F939F93AF93BF9380918F0290919002AB
:10081000A0919102B091920230918E0223E0230FB9
:100820002D3720F40196A11DB11D05C026E8230F28
:100830000296A11DB11D20938E0280938F0290938A
:100840009002A0939102B0939202809193029091B2
:100850009402A0919502B09196020196A11DB11D3E
:100860008093930290939402A0939502B093960282
:10087000BF91AF919F918F913F912F910F900FBE9C
:100880000F901F9018951F920F920FB60F92112480
:100890002F933F934F935F936F937F938F939F9388
:1008A000AF93BF93EF93FF93E0919902F0919A0277
:1008B000309709F451C0968DA685B785858591FF3F
:1008C00004C09C91892329F447C09C91892309F095
:1008D00043C0A389B4899C918589809589238C9391
:1008E000868997890197F1F7608D718DA685B78507
:1008F000558538E020E0CB010197F1F7822F90E099
:1009000095958795282F4C91452309F02068315003
:1009100091F7868D81FD20958091980290E0019657
:100920008F73992730919702381749F0A091980258
:10093000B0E0A25BBD4F2C938093980203C0868DDC
:100940008160868F828D938D0197F1F7A389B48999
:100950009C918589892B8C93FF91EF91BF91AF91E9
:100960009F918F917F916F915F914F913F912F91C7
:100970000F900FBE0F901F9018951092AA02109220
:10098000A90288EE93E0A0E0B0E08093AB029093E0
:10099000AC02A093AD02B093AE0224E031E03093FC
:1009A000A8022093A70225EC30E03093B4022093F4
:1009B000B30224EC30E03093B6022093B50220EC71
:1009C00030E03093B8022093B70221EC30E030934E
:1009D000BA022093B90222EC30E03093BC0220939B
:1009E000BB0226EC30E03093BE022093BD02109291
:1009F000C0021092C1021092C2021092C302109261
:100A00004703109246038093480390934903A093B1
:100A10004A03B0934B0386E191E0909345038093A2
:100A2000440310925B0310925A0310925D031092DC
:100A30005C0310925F0310925E03109261031092A8
:100A40006003609162036E7F6D7F609362036695C1
:100A5000617081E068278BE00E94E50161E08BE036
:100A60000E941502E9EBF0E0E491E0935403E5EA1B
:100A7000F0E0E491F0E0EE0FFF1FEA57FF4F8591A1
:100A80009491909356038093550360E08AE00E940E
:100A900015028091620381FD04C061E08AE00E943A
:100AA000E5018AE080935003E8EBF0E0E491E09305
:100AB0005103E4EAF0E0E491F0E0EE0FFF1FE057AD
:100AC000FF4F85919491909353038093520308951F
:100AD000789484B5826084BD84B5816084BD85B519
:100AE000826085BD85B5816085BD80916E00816025
:100AF00080936E00109281008091810082608093CB
:100B000081008091810081608093810080918000CC
:100B10008160809380008091B10084608093B100F7
:100B20008091B00081608093B00080917A008460F1
:100B300080937A0080917A00826080937A0080911D
:100B40007A00816080937A0080917A008068809337
:100B50007A001092C10060E083E00E94150260E01C
:100B600084E00E94150260E085E00E94150260E0CA
:100B700086E00E94150260E087E00E94150261E0B5
:100B80008DE00E941502E091B702F091B80282E078
:100B90008083E091B302F091B4021082E091B5023B
:100BA000F091B6028FEC80831092BF02E091BB02FD
:100BB000F091BC0286E08083E091B902F091BA0224
:100BC000808180618083E091B902F091BA028081D6
:100BD00088608083E091B902F091BA0280818068D8
:100BE0008083E091B902F091BA0280818F7D808389
:100BF00010925F0310925E0310925D0310925C03EB
:100C000010925B0310925A038DE991E09093610377
:100C10008093600390915003963108F057C02DEBFC
:100C200030E030935B0320935A032BE931E030939B
:100C30005D0320935C032CE231E030935F0320934B
:100C40005E0320916800983050F031E09E3008F447
:100C500030E081E001C0880F3A95EAF701C084E0F6
:100C6000822B80936800983038F09E3040F09631A7
:100C700048F020E030E008C02DE630E005C02BE66B
:100C800030E002C02CE630E0309358032093570345
:100C9000983030F481E001C0880F9A95EAF70EC0D1
:100CA000292F30E09E3018F42850310902C02E5010
:100CB000310981E001C0880F2A95EAF78093590332
:100CC00080916003909161030197F1F780915E0339
:100CD00090915F03892B21F18091990290919A0262
:100CE00023E084349207E1F0009711F00E9454034E
:100CF000809162038E7F809362031092980210921B
:100D0000970284E493E090939A0280939902E09191
:100D10005703F0915803908180915903892B808368
:100D200067E271E087EA92E00E948D0367E271E07A
:100D300084E493E00E948D0383E00E94BC01EC01F7
:100D40009093A6028093A50284E00E94BC018C01CE
:100D50009093A4028093A30285E00E94BC017C01D1
:100D60009093A2028093A10286E00E94BC016C01D4
:100D70009093A00280939F0287E00E94BC01909311
:100D80009E0280939D02019711F5CA94CD28F9F433
:100D9000EA94EF28E1F401301105C9F4C130D1051E
:100DA000B1F4D0939C02C0939B0261E08DE00E945D
:100DB000E5016DE271E087EA92E00E948D036FE346
:100DC00071E084E493E00E948D030E94760280919A
:100DD0009D0290919E02892BD9F580919F0290915E
:100DE000A0020197A9F58091A1029091A20201971A
:100DF00079F58091A3029091A402019749F5809121
:100E0000A5029091A602019719F580919B029091FD
:100E10009C020E946E0369E571E087EA92E00E94FD
:100E20008D036CE671E084E493E00E947803809186
:100E30009B0290919C02019719F463E871E002C053
:100E400061E971E084E493E00E948D030E947602E0
:100E500080919D0290919E02892BD9F580919F02ED
:100E60009091A002892BA9F58091A1029091A202F4
:100E7000019779F58091A3029091A402019749F519
:100E80008091A5029091A602019719F580919B028D
:100E900090919C020E946E0360EA71E087EA92E002
:100EA0000E948D0364EB71E084E493E00E94780378
:100EB00080919B0290919C02019719F463E871E084
:100EC00002C061E971E084E493E00E948D030E9416
:100ED000760280919D0290919E02892BD9F5809196
:100EE0009F029091A002892BA9F58091A102909177
:100EF000A202892B79F58091A3029091A402019717
:100F000049F58091A5029091A602019719F580916B
:100F10009B0290919C020E946E036BEC71E087EA49
:100F200092E00E948D036EED71E084E493E00E94F4
:100F3000780380919B0290919C02019719F463E8D9
:100F400071E002C061E971E084E493E00E948D03E6
:100F50000E94760280919D0290919E02892BD9F584
:100F600080919F029091A002892BA9F58091A10206
:100F70009091A202892B79F58091A3029091A4020D
:100F8000892B49F58091A5029091A602019719F548
:100F900080919B0290919C020E946E0365EF71E02C
:100FA00087EA92E00E948D0369E072E084E493E0B6
:100FB0000E94780380919B0290919C02019719F402
:100FC00063E871E002C061E971E084E493E00E94AB
:100FD0008D030E94760280919D0290919E02892B42
:100FE00071F580919F029091A002892B41F580912B
:100FF000A1029091A202892B11F58091A3029091F8
:10100000A402892BE1F48091A5029091A602892B7C
:10101000B1F410929C0210929B0280E090E00E943A
:101020006E0360E272E087EA92E00E948D036EE256
:1010300072E084E493E00E948D030E9476020E9495
:1010400089017ACE86E191E0909345038093440331
:1010500084E493E00C94540397FB072E16F4009459
:1010600007D077FD09D00E94400807FC05D03EF468
:10107000909581959F4F0895709561957F4F089544
:10108000AA1BBB1B51E107C0AA1FBB1FA617B707AE
:1010900010F0A61BB70B881F991F5A95A9F78095CA
:1010A0009095BC01CD010895EE0FFF1F0590F491BE
:1010B000E02D099481E090E0F8940C945F0810E032
:1010C000C2E6D0E004C0FE010E9454082196C33657
:0810D000D107C9F7F894FFCF26
:1010D8000000000020018D00B8006701E900C7008A
:1010E800DB0000000000C7028D006B03C6021B0373
:1010F8003303AE020D0A00776174657200574154DC
:1011080045522042454C4F5720454D505459002ACE
:1011180062302520092009204D6F746F72204F4ED0
:10112800200A2A202A41302A005741544552204992
:10113800532042454C4F5720312F34002A624265D4
:101148006C6F7720323525200920092A202A413260
:10115800352A002A624D4F544F52204F4E200A2AFA
:10116800002A624D4F544F52204F4646200A2A000B
:1011780057415445522049532042454C4F57204827
:10118800414C46002A6242656C6F77203530252035
:101198000920092A202A4135302A0057415445524E
:1011A8002049532042454C4F5720332F34002A62A0
:1011B80042656C6F7720373525200920092A202AB7
:1011C8004137352A0057415445522049532042455A
:1011D8004C4F572046554C4C002A6241626F766549
:1011E80020373525200920092A202A4138352A00A8
:1011F80057415445522049532046554C4C002A62C9
:101208003130302520092009204D4F544F52204FAE
:0E1218004646200A2A202A413130302A0000A2
:107E0000112484B714BE81FFF0D085E080938100F7
:107E100082E08093C00088E18093C10086E0809377
:107E2000C20080E18093C4008EE0C9D0259A86E02C
:107E300020E33CEF91E0309385002093840096BBD3
:107E4000B09BFECF1D9AA8958150A9F7CC24DD24C4
:107E500088248394B5E0AB2EA1E19A2EF3E0BF2EE7
:107E6000A2D0813461F49FD0082FAFD0023811F036
:107E7000013811F484E001C083E08DD089C08234E0
:107E800011F484E103C0853419F485E0A6D080C0E4
:107E9000853579F488D0E82EFF2485D0082F10E0AE
:107EA000102F00270E291F29000F111F8ED06801E7
:107EB0006FC0863521F484E090D080E0DECF843638
:107EC00009F040C070D06FD0082F6DD080E0C81688
:107ED00080E7D80618F4F601B7BEE895C0E0D1E017
:107EE00062D089930C17E1F7F0E0CF16F0E7DF06D8
:107EF00018F0F601B7BEE89568D007B600FCFDCFD4
:107F0000A601A0E0B1E02C9130E011968C91119780
:107F100090E0982F8827822B932B1296FA010C0160
:107F200087BEE89511244E5F5F4FF1E0A038BF0790
:107F300051F7F601A7BEE89507B600FCFDCF97BE46
:107F4000E89526C08437B1F42ED02DD0F82E2BD052
:107F50003CD0F601EF2C8F010F5F1F4F84911BD097
:107F6000EA94F801C1F70894C11CD11CFA94CF0C13
:107F7000D11C0EC0853739F428D08EE10CD085E9AC
:107F80000AD08FE07ACF813511F488E018D01DD067
:107F900080E101D065CF982F8091C00085FFFCCF94
:107FA0009093C60008958091C00087FFFCCF809118
:107FB000C00084FD01C0A8958091C6000895E0E648
:107FC000F0E098E1908380830895EDDF803219F02E
:107FD00088E0F5DFFFCF84E1DECF1F93182FE3DFCA
:107FE0001150E9F7F2DF1F91089580E0E8DFEE27F6
:047FF000FF270994CA
:027FFE00040479
:0400000300007E007B
:00000001FF
